:200000000040002099DF000001C9011001C9011001C9011001C9011001C9011001C90110E6
:1C00200001C9011001C9011001C9011001C9011001C9011001C901103FC9011089
:20003C002DE9F84FDFF82085DFF8201588F80000002008600821DFF8180501700D2141803A
:20005C004FF408718180DFF80C05DFF80C1501608A7EDFF808050270FF2ACB7E437008BF3C
:20007C00FF2B0D7F85704E7FC6708F7F0771C97F417115D1FF2D08BFFF2E11D1FF2F08BF59
:20009C00FF290DD1DFF8D8140A7802704A7842708A788270CA78C2700A7902714979417141
:2000BC00DFF8C01402780A70FF2542784A7082788A70C278CA7002790A714079DFF8A82433
:2000DC0048710021DFF8A404057045708570C570057145711180DFF89804DFF89814466BF3
:2000FC00DFF894247078087031781170B078DFF88C140870B1680879DFF88414421E0A70D1
:20011C00F078DFF880140870F068DFF87C14086008B910F03DF93069DFF87044206008B9F5
:20013C0010F036F92068DFF8687401688847216851F8042F38469047DFF85804DFF8581431
:20015C003862DFF8580478627069086008B910F01FF9B069DFF84814086008B910F018F93C
:20017C00DFF840B4DFF840649BF8040010F0D2FC306008B900F049B99BF80500DFF82C7466
:20019C0010F0C8FC386008B930683BE19BF80600DFF81C4410F0BEFC206020B9306810F0F7
:2001BC00C1FC38682EE19BF80700DFF8089410F0B1FCC9F8000038B9306810F0B3FC386864
:2001DC0010F0B0FC20681DE1DFF8AC130A789BF80000DFF8E4A3921C504380B210F09AFCBF
:2001FC00CAF8080058B9306810F09CFC386810F099FC206810F096FCD9F8000002E1DFF8FE
:20021C0078030078002800F00581BBF80210DFF8ACB3484380B210F07DFCCBF8040078B908
:20023C00306810F07FFC386810F07CFC206810F079FCD9F8000010F075FCDAF80800E1E09D
:20025C00CD48007810F066FCDD49086098B9306810F068FC386810F065FC206810F062FCD1
:20027C00D9F8000010F05EFCDAF8080010F05AFCDBF80400C6E0C04800781821484310F046
:20029C0049FCD04A1060B0B9306810F04BFC386810F048FC206810F045FCD9F8000010F0AD
:2002BC0041FCDAF8080010F03DFCDBF8040010F039FCC348A5E0B0480078400110F02AFC5F
:2002DC00C1490860D8B9306810F02CFC386810F029FC206810F026FCD9F8000010F022FCE1
:2002FC00DAF8080010F01EFCDBF8040010F01AFCB348006810F016FCB249086882E09E48D9
:20031C000078000110F006FCB0490860F0B9306810F008FC386810F005FC206810F002FC79
:20033C00D9F8000010F0FEFBDAF8080010F0FAFBDBF8040010F0F6FBA148006810F0F2FB02
:20035C00A049086810F0EEFB9F485AE08A480078000110F0DFFB9E49086018BB306810F03F
:20037C00E1FB386810F0DEFB206810F0DBFBD9F8000010F0D7FBDAF8080010F0D3FBDBF890
:20039C00040010F0CFFB8E48006810F0CBFB8D49086810F0C7FB8C48006810F0C3FB8B4999
:2003BC0008682FE0744800783021484310F0B2FB884A106070BB306810F0B4FB386810F091
:2003DC00B1FB206810F0AEFBD9F8000010F0AAFBDAF8080010F0A6FBDBF8040010F0A2FBBF
:2003FC007748006810F09EFB7649086810F09AFB7548006810F096FB7449086810F092FBED
:20041C007348006810F08EFB00200FF0C1FF4FF4804192E0316801200871306805733168E3
:20043C004D73306885733168CD7330680574002031684D743268D072A022316848710321D8
:20045C003068C28001720720316848720020326890722821306841820121C1760020316847
:20047C004877326882F85E00012031680877326882F85D00396808713868057339684D73F2
:20049C00386885733968CD7338680574002039684D743A68D072396848713A6890724FF407
:2004BC00207039680022C88008818A7401213A68D17421680D732268557321688D73226887
:2004DC00D57321680D740021226855742368D9720121226811710021236859712168C880EF
:2004FC000881002088722168887405202268D0743948016888472A490A680546106880479D
:20051C0027490A6852F8043F0020984718481D4BC16818780A88314902430A80284630490E
:20053C000A6890470C212F4800F05EF80F4800F05FF800F061F84FF4005198F80000BDE8BC
:20055C00F44F00F0EFBC00BF6E4F0020044F0020604E0020084F0020B63F00502C4E00206E
:20057C00E81200503C4E00200C4F0020344E0020242701006D4F00207B4F00206B4F002062
:20059C00724F00206C4F0020F04E0020F44E00207C4B0020310B0100F84E0020410B0100EC
:2005BC00FC4E002084110020104F0020144F0020184F00201C4F0020481B0020684E002093
:2005DC00004F0020804E0020844E0020884E00208C4E0020904E00205C0C0020544F002077
:2005FC00600C0020F84D0020DFF800F0E5710110DFF800F01D6E0110DFF800F04D710110C7
:20061C002DE9F047C94C014620790FF21C380A09ADF1200D80F0D8814909C0F0458294F92A
:20063C000210D24A002872D115462878B1F1FF3F37D1E078012800F03782E0690127002661
:20065C000221E770C5A3667032460FF0A6F9E0694346032132460FF0A0F9E06904214346B3
:20067C0032460FF09AF9E0690521434632460FF094F9E0690621434632460FF08EF92878C1
:20069C000FF000F88DF8100004AA8DF8127003208DF81360CA498DF81100102005F0A0FF75
:2006BC0002E2012204EBC105227180356F780EF0E9FF8DF8140000268DF815608DF8166099
:2006DC00AD1C8DF81770296806A80160AB888380BC4905AA102005F083FFE0690221CDA31C
:2006FC0032460FF05AF9E76928460DF08DF803460321324638460FF050F9E0690421324643
:20071C0010F0AAFA66704FF0FF30A070CCE1022840F0CA81A07AA689617A678A1278DFF8FD
:20073C0024A3DFF824930028354600F0CA80401E00F08780401E3FD0401E03D0401E00F02A
:20075C001781B1E128460FF0F5FE78BBCD4910203246012305F044FF002800F0A5813046F2
:20077C000FF0E8FE071C15D1618E4FF6FF7004F13007884240F09881242010F0B9FB00286D
:20079C00786000F09181CA49002213460DF04EFA7D8002E0786810F0C7FB4FF47A7038802A
:2007BC0078684FF47A710EF0E3F97DE130460DF0ADFF0421BFA373E1012900F07581217A32
:2007DC00207869B3304612210122002300F0C6F90028029000F0688122210127ADF80410F4
:2007FC00E179ADF8067000260170E0798DF80C60401CE071A58920788DF80D600EF042FFE3
:20081C000090514601AB2A46102005F0E9FEC5B2002D00F09C8001A8122100F0A3F90CE069
:20083C002221ADF804100EF02DFF009049462A4601AB102005F0D4FEC5B2002D00F08780A9
:20085C0032E1012900F03081217A207849B3304612210122002300F081F90028029000F06C
:20087C00238120210127ADF80410A179ADF8067000260170A5898DF80C6020788DF80D6021
:20089C000EF000FF0090514601AB2A46102005F0A7FEC5B2002D5AD001A8122100F062F93D
:2008BC000CE02021ADF804100EF0ECFE009049462A4601AB102005F093FEC5B2002D46D0A3
:2008DC00F2E0002F00F0F080012900F0ED80237A20786BB3304612210122002300F03EF9AB
:2008FC000028029000F0E080618A0127ADF80410A179ADF8067000260170A5898DF80C601B
:20091C0020788DF80D600EF0BDFE0090514601AB2A46102005F064FEC5B2C5B101A81221E5
:20093C0000F020F910E0C04600C046C008020020ADF804700EF0A6FE009049462A4601ABB6
:20095C00102005F04DFEC5B2002D40F0AD8001206072207A80F001002072A5E04469736372
:20097C006F766572696E672E2E2E00C0780600200326104626710EF085FE02462B461320F6
:20099C0075490090102005F02BFEE069022100224CA30FF002F8E0694346002231460EF0C0
:2009BC00FCFFE0690421002243460EF0F6FFE0690521002243460EF0F0FF0020A07273E088
:2009DC0089A800009984000000283FD1E07801286AD094F902006278401C41B2E0698A42ED
:2009FC001EDDA170491C00223AA3009102210EF0D4FF94F90200E56904EBC00082300CF0AC
:200A1C0003FF03460321002228460EF0C6FF34A33FE0C046436F6E6E656374696E6700C034
:200A3C004FF0FF31A1704346002202210EF0B5FFE0690321002243460EF0AFFF05212FA3DE
:200A5C002EE0C0464D0F0100510F010002282BD1A07A042814BF401C0020A072E06907216A
:200A7C00102210F0F9F8A07A90B1401E0ED0401E0AD0401E03D0401E10D123A309E026A380
:200A9C0007E0C046B17F011028A302E02EA300E02FA3E069052100220EF07FFF062113A3F2
:200ABC00E06900220EF079FF08B0BDE8F087C04615090100525353492043616E63656C6C2D
:200ADC00656400C0446973636F6E6E656374696E6700C04644657669636520256400C04624
:200AFC00436F6E6E656374202D3E00C03C2D204E657874204F7074696F6E00C044697363C1
:200B1C006F766572202D3E00446973636F6E6E656374202D3E00C046546F67676C65205203
:200B3C006561642052535349202D3E00537472696E672057726974652F5265616420496E5F
:200B5C00666F202D3E00C0464C454431202D3E004C454430202D3E00E5140110DFF800F021
:200B7C0005840110DFF800F0898401102DE9FE4FDFF87483D8F804701FB9BDE8F74F00F0B2
:200B9C00C1B93878DFF86493DFF864A3DFF8644301281CBF0228042841F64C5B05D0402870
:200BBC0018BF802800F0C28097E110F0A9F80028FAD0387806F006FD05466E6816B90020A4
:200BDC000FF0E6FBDFF830134878002800F0868003F06CFF0FF0A4FE019001680091284629
:200BFC004F6809F00FFD02284CD02978022902D0042921D071E10521217018B900F086F9D2
:200C1C005844B0603069C17E01F0EF01C1763069C17E41F08001C1763069C17E01F0F001A1
:200C3C0041F00201C1760221B86882443069C0F820A088F8021077E00621217018B900F0B1
:200C5C0065F95844B060AD480168887C00F062F93069C17E01F0EF01C1763069C17E41F0C8
:200C7C008001C1763069C17E01F0F00141F00201C1760421B86882443069C0F820A088F8DF
:200C9C00021051E000980178802913D108229C4822700178012903D0974A5078022803DB90
:200CBC0038690121C17213E0D9F828103A690878D0720DE09249072020700A783869012AF4
:200CDC0002D10123C37203E0D9F828104A78C2720198894A817900989170FAE0002D14D000
:200CFC002878AF420DD102281ED0042805D183480168887C00F00EF916E000200FF048FBC8
:200D1C0012E0022802D0042804D0E6E005202070022007E00620207078480168887C00F072
:200D3C00F9F8042088F802002846D2E072494878002800F0968003F0B9FE0FF0F1FD01900F
:200D5C00016800914D686C4988780FF0E9FD02900FF0DCFF10F0070F53D098F8020006F001
:200D7C0031FC06460099776809F04CFC022848D03178022902D004291AD03FE00521217050
:200D9C0018B900F0C3F85844B8603869C17E01F0EF01C1763869C17E41F08001C1763869A5
:200DBC00C17E01F0F00141F00201C17602211DE00621217018B900F0A9F85844B8604F4806
:200DDC000168887C00F0A6F83869C17E01F0EF01C1763869C17E41F08001C1763869C17E5B
:200DFC0001F0F00141F00201C1760421A86882443869C0F820A088F8021069E000200FF07C
:200E1C00C7FA02980199884229D000980178802913D108223A4822700178012903D0364A2C
:200E3C005078022803DB28690121C17213E0D9F828102A690878D0720DE031490720207071
:200E5C000A782869012A02D10123C37203E0D9F828104A78C2720198274A8179917000988D
:200E7C0037E00FF053FF10F0070F3BD098F8020006F0A8FB064646F2A815307877680228B0
:200E9C0002D004280FD02DE00520207000F03EF82918B86800F042F818B900F037F858445A
:200EBC00B860022012E00620207000F02FF82918B86800F033F818B900F028F85844B8600C
:200EDC000E480168887C00F025F8042088F802003046BDE8FE4F08F0B9BCBDE8FE4F002099
:200EFC000FF056BABDE8F78F481B002024270100F0D8FFFF6F4F0020684E0020184F0020CC
:200F1C00734F0020DFF800F03D710010DFF800F0B1970110DFF800F029780010DFF800F0EF
:200F3C00B99701102DE9F843DFF8B0802A4E81460C4639F07F0018D1B9F10A0F12DA284D96
:200F5C00A86880472349096831F81920144321F81940E9688847306841461431426A0868F6
:200F7C00904734E00320BDE8F88304200EF00AFF071C08BF04202BD04FF6FF7038807C808B
:200F9C000FF000FF41468C78A7F10C05FF2802D0896A09188C7AFF2C08D138460FF096F8E1
:200FBC003068806880470120BDE8F88348460FF0ADF833680146FF20A8721D680022204633
:200FDC003B46A84718B138460FF080F8EBE70020BDE8F883801B0020181200200810002078
:040FFC00540C002071
:20100000B41200001810000015AB0110FDB301106DC00110FDAE011099B5011000000000F7
:08102000000000002D0000009B
:20102800B01200003C100000B1C00110A9BF011067C0011069B80110000000000000000035
:041048003000000074
:20104C00B012000060100000BDC00110CDB30110D9BD01106DB3011000000000000000005B
:04106C00310000004F
:20107000000000009C11002004000000000000000000000020000000E8C90110300000007D
:2010900028100000A41100200400000000000000000000000C000000D8CA01101800000058
:2010B0004C100000AC11002004000000000000000000000024000000F0CA011018000000DC
:2010D00000000000B41100200400000000000000000000001000000018CA01102C000000E8
:2010F00000100000C4110020040000000000000000000000200000006CCA0110240000004C
:20111000FFFFFFFFCC1100200400000000000000000000002800000090CA0110240000000B
:20113000FFFFFFFFD41100200400000000000000000000001400000008CB0110180000008A
:20115000FFFFFFFFDC11002004000000000000000000000058000000B4C901103400000058
:20117000FFFFFFFFE41100200400000000000000000000001000000020CB01101800000026
:20119000FFFFFFFFEC1100200400000000000000000000001C000000B4CA01102400000053
:2011B000FFFFFFFFF41100200400000000000000000000003800000044CA0110280000007B
:2011D000FFFFFFFFFC1100200400000000000000000000005400000078C901103C000000F0
:0811F000010000000C270100C2
:0411F80001000000F2
:0411FC0000000E00E1
:0412000000000F00DB
:0412040032000000B4
:0412080001000000E1
:04120C00A810002006
:0412100000020000D8
:0412140000000000D6
:0412180001C90110F7
:04121C0000000000CE
:0412200000000000CA
:0412240008000000BE
:0412280000002200A0
:04122C00100F00207F
:0412300000000000BA
:0412340000000000B6
:0412380008000000AA
:04123C00341000204A
:0412400000000000AA
:0412440000000000A6
:04124800080000009A
:04124C00000000009E
:04125000000000009A
:041254000000000096
:041258000000000092
:04125C00010000008D
:04126000A80F0020B3
:041264000600000080
:041268000100000081
:04126C00300E002020
:04127000000000007A
:041274000000000076
:041278000002000070
:04127C00000000006E
:02128000290043
:02128200010069
:02128400250043
:02128600300036
:02128800310033
:02128A002D0035
:02128C0001005F
:01128E00015E
:0812900003000000A426010088
:0812980000000000000000004E
:0412A0000000010049
:0412A4000000030043
:0412A80013C401105A
:0412AC0083080100B2
:0412B000B812000070
:0412B400B81200006C
:0412B8000000000032
:0412BC0050110020AD
:0412C0003D0A0100E2
:0412C4002000000006
:0412C80010260100EB
:0412CC002C240100CD
:0412D00029C101101F
:0412D4002BEE0000FD
:0412D8009FF600007D
:0412DC00A1C7011095
:0412E000A3C701108F
:0412E4000000000006
:0412E80035260100A6
:0412EC009422010047
:0412F000AC2201002B
:0412F4007C22010057
:0212F8000200F2
:0212FA000900E9
:0212FC000100EF
:0212FE000000EE
:0113000001EB
:04130400DD090100FE
:04130800BDED000037
:04130C0055FE00008A
:04131000D1F0000018
:041314009BF1000049
:04131800F9DD0000FB
:04131C00A9BD000067
:04132000590C010063
:0413240069CF00008D
:0413280015C70110D4
:04132C0025C70110C0
:201330002DE9F04F85B011F801ABDFF82C35DFF82CB5804608F5BC70009008F1FD02AAF15C
:201350000200132808F1660608F1F40708F59C7408F1860908F5AC7500F26C82DFE810F08D
:20137000C8006A0214004000430051026A0290006A0270009C0073007800CE008601CB01BF
:20139000BF005902D201D20108F1A0040822204610F0ECF906460821204610F0E3F908F1BB
:2013B000980704223146384610F0E0F90421384610F0D8F900204142414408EB000291F870
:2013D0009F1082F8BF10401C0828F4DB08F1C702214608F1D70005B0BDE8F04F10F0BEB9A1
:2013F0000120B87135E23978787A012900F010000DD130B100206070396CA07849080BF0F7
:201410001FFA98F80600002110F0A4F90FE040B13A6CDFF84C0408F59D73520841460FF0B5
:20143000B1FC98F806000122002110F08FF901203070404610F086F90120B071B87008E273
:201450000120F87005E2087878700120F87100E2B07918B93D2038770120F876787A0007AA
:2014700001D40E212DE100205C1C0E5C245C34401454401C0828F7DB404610F05FF9DEE1F1
:2014900000205C1C0D5C245C2C401454401C0828F7DB02203872DCE1B07920B93D2101207F
:2014B0003977F876D5E1787C012803D10C2179770721D5E011F8010B3875022208F5857085
:2014D00010F054F90146022208F5867010F04EF901207874F87C0028E4D10C21C0E0787AED
:2014F000C10601D41221ECE0404610F023F9A6E108783877F0210020F876F6E07B7A9807E0
:2015100004D413F0110F1CD01A22E0E0307C012804BF707C0F2808D0707D08B1727C12B1EE
:20153000327F012A03D158070BD52322CFE010B1707C012803D099F80A00012806D1590714
:2015500002D40F20787777E12A22C0E008784A7800EB02202081CA78887800EB0220608123
:201570004A79087900EB0220A081CA79887900EB0220E081087A20748A7A487A00EB02204E
:2015900060820A7BC87A00EB0220A0828A7B487B00EB0220E0820A7CC87B00EB02202083B3
:2015B0008A7C487C00EB022060830A7DC87C00EB0220A083487D897D00EB0120E08308F52F
:2015D000A6700490608A0390207C0290B8F808000190E0890090A3896289218940460AF023
:2015F000A0FB18B1787A410770D469E06089A9F80400A089A9F80600E089A9F8080002201E
:2016100089F800000020A9F80200B8F83400C01DF083B8F83210B9F80400884202BFB9F85F
:201630000600B8F83410884202BFB9F80800B8F83610884213D0707D18B10F21B176FE218D
:201650000EE0FC21404610F071F8E0890090A3896289218998F8060010F064F8F9E00021DA
:20167000404605B0BDE8F04F10F060B88A78C8780E798C7902EB0025487906EB0026C8792A
:2016900001F10B0204EB00240492B3B2487A8A7A00EB022080B20390AAB2087A0290B8F875
:2016B00008000190A0B200900878497800EB012081B240460AF035FB80B1787A410702D42E
:2016D0000F217977B8E0404610F028F81E22404605B0BDE8F04F0F2110F01CB8A9F8045044
:2016F000A9F80660A9F808400021404605B0BDE8F04F10F00BB80878287048786870012016
:201710006071A6E008784A7800EB02206882CA78887800EB0220E8824A79087900EB02201F
:2017300028828879C97900EB0120A882E98AA889AA8B884288BF0846A88390422889698A9D
:201750002A8B14BF01260026884288BF0846904214BF012100210E43288308F5BC70A98B04
:20177000007901220FF0CEFF0146288B884206D308F5BC70A98B007901220FF0C3FF08F59D
:20179000BC7148806889298A884288BF0846698B6883884214BF0122002216438142924191
:2017B000E889A98AEB8BD20F884288BF0846984214BF012100210E43E88312B140460FF0CB
:2017D0009DFFBAF1140F10D146B1E88B00906B8BAA8B298B98F806000FF08CFF404605B07A
:2017F000BDE8F04F152109F0FFBE26B10098017841F0080101700098017841F020010170A2
:2018100027E008780F2807D0122802D0142806D01FE0002020701CE00120207119E0009817
:201830000099007840F00200087040F01000009908700EE087F81DA040460FF057FF40B98E
:201850009BF8000005B0BDE8F04F4FF48041FFF76FBB05B0BDE8F08FEC4D00206E4F002019
:20187000018B00102DE9F8435FEA000920D100200EF094FD1CE048460FF034FF7CE1297CBB
:20189000012940F07681C078002800F0798178883978400078804900B88839704000B8800A
:2018B0000121388900013881297748460FF036FF09F16605687D002800F06881697CDFF812
:2018D0002C04002909F1860709F20F1809F1EC0609F59E74D3D0012939D002292BD00329D2
:2018F0003FD0062900F08080072900F03881082900F0A880092900F0B5800A2900F0878007
:201910000B2900F090800C2900F0B9800F2900F0D180112900F0F180122900F0C580142964
:2019300000F0F980F02900F03381FC295BD0FE2900F038819BE7297C01299CD1C078002833
:2019500000F0E28048460FF0E9FE162125E1297C012940F03881C078002818BFB972A4D1E5
:2019700035E1297C012940F03981807840B10021A971A078012803D1A17048460FF0D6FEDD
:20199000B07B012808D1002131607160B873062148460FF0BBFE8BE7F07B012818D1484672
:2019B0000FF0BCFE0021B9730120287048460FF0C9FE0120A87100207073717A99F8060045
:2019D00006291ABF00221A2100220FF0BFFE6FE798F80000012844D0298B481E288380B29A
:2019F000002800F02781D0E0287C012840F00081B17A012916D148460FF090FE00203072D0
:201A10003073F072B073B072F073707350E7287C012840F0FC80F17A012902BF0020B873D5
:201A30000B21B5D0EDE0297C012940F0F9808078002800F0F9800321AAE7002222210FF0FE
:201A500085FE50E1287C012840F0FE80307C022809F1FD0240F0018199F8061000200FF000
:201A70003DFE22E7297C012940F003818078002800F00381B9F82210A9F81E1015E7287CA9
:201A9000012840F0FD80717E012940F00081B07E0128F3D1318C0091F38B327F99F8061057
:201AB00000200FF017FE00E7297C012940F0FF80807827E0287C012840F0FD806178012901
:201AD00009D1207F0F281CBF00200EF067FC0020607000215CE7A078012807D10021A1704B
:201AF00023220F2148460FF015FEE1E62078012840F0E580002121704AE7297C012940F0C2
:201B1000E480C078002822D1298B481E288380B2002896D039E0287C012840F0DA8009F50B
:201B3000AF76B07E810613D500F0DF000107B0760BD500F0F700B076308B0090B38AF28AE5
:201B5000718A99F806000FF0D5FD00203070ACE6810740F1C28000F0FD00B076F5E7484648
:201B70000FF0C4FD0128F2D00FE000200EF016FC0BE048460FF0AAFD2874E88A288304E0CF
:201B9000B9F80A00E98B884226D00020BDE8F283407A0028FAD098F8011048460FF092FDA3
:201BB0000120F3E7A87E0F28DFD1FC2148460FF0ADFD608900902389E288A18899F806006A
:201BD0000FF0B0FDE1E748460FF078FDD4E7B9F80A00B9898842D8D12821DEE748460FF0B9
:201BF00069FD2874E88A28830020B073F073CDE748460FF05BFD2874E88A28830020B0727C
:201C1000C4E7288B401E288380B298B1BDE748460FF048FD2874E88A28830020F072B5E785
:201C300048460FF03BFDA7E7288B401E288380B20028AAD1317A99F8060001297FF4FDAE26
:201C500022210FF087FD4EE048460FF023FD2874E88A28830120307497E7288B401E28831B
:201C700080B2002891D199F8061022200FF036FD39E048460FF062FD7EE7288B401E45E7D6
:201C90000120F07648460FF001FD28747DE7288B401E288380B20028F8D1308C0090F38B79
:201CB000327F99F8061022200FF014FD1BE048460FF0E8FC60E748460FF0E0FC5CE7288B58
:201CD000401E288380B270B15FE748460FF0D2FC52E7484609F088FC4EE7288B401E2883C2
:201CF00080B20028F0D1222157E700BF5C4D00202DE9F04FC14C04F124012046ADF1240DFF
:201D10000BF0E8FC04F14005002128460FF0AEFCBB494FF47A72002304F15C00A5620BF0B9
:201D30008BFFB84D05F1180005F10C0108F00CFDB549A8600EF0C0FFB44EA8684FF4E021D9
:201D50003246521E0DF0ECF8A8684FF4E02132460DF0E6F8CB4EA8684FF0C0513246521EA2
:201D70000DF0DEF8A8684FF0C05132460DF0D8F8C54905F12400C82200230BF05DFFC34844
:201D9000002168604FF080400AF076FF4FF6FF764FF008080025DFF8FC92BD4FE0610222D8
:201DB00066864FF47A6365634946102087F8018004F01CFC102003224FF47A63494604F07C
:201DD00015FCB548B54915232A460090102004F00DFC01208DF8190082468DF81A50DFF835
:201DF0004C938DF81B504FF480628DF81CA00DF11900534649460090102004F0F7FB0DF1BB
:201E10001A0040F20242009053464946102004F0EDFB0DF11B000090494640F20342534616
:201E3000102004F0E3FB07A8494640F2064253460090102004F0DAFBBD49102004F0D6FBBB
:201E500020780DF025FCBB490246102004F0CEFBB94910204FF0FF3204F0C8FBB7491020FA
:201E70004FF0FF3204F0C2FB04F12C00B86038780DF00EFC024678784346B149009007F1FE
:201E90001600019007F126000C3702901020039704F0ACFBAB4904F13802102004F0A6FB4B
:201EB00020780DF0F5FBA8490246102004F09EFB20780DF0EDFBA5490246102004F096FB2F
:201ED000E069294676A30A460DF06DFDB346DFF89492606AA24A29464FF0FF330FF0C2FB22
:201EF0005FEA000800F0BB802846049006A904AA05A80DF0FFF878B9BDF81400102807D14C
:201F100020789DF81810884202D1049800F02CF9049808B10EF0B3FF5FEAD870C0F08780C1
:201F30007FE0A66A30460FF099FB864208BF2F1C02D087680CF0A6FF381C72D03888401E29
:201F500066D0401E55D0801E3FD0001F19D0083864D17868A68903783BB1CDF80090E0697A
:201F700004212A4651A30DF01EFD7C49CDF80090102032462B4604F039FB78680CF082FFF8
:201F90004CE07A68BE78E1691078AEB1012E0CD0022E07D0032E16D1002808BF47A30CD0DD
:201FB0004BA307E078B950A307E0002808BF52A303D055A3009000E058A308462A46022136
:201FD0000DF0F1FC7A681046D8E77E687288934524D061491020534604F008FBF0B1706881
:201FF00031880CF0CBFD72885A49102004F0FEFA14E0B878FEF70AFB10E0C046080200205D
:20201000B10A01007C0E0020ADEA00000E000580786800F0A9F878680EF031FF38460CF027
:2020300031FFA06A0FF016FB00283FF47AAF20785FEA580113D365822582218BE581A689D3
:2020500084F805A0091FADF816100DF021FB404900900DF116033246102004F0C7FA84F83A
:2020700054A084F84C50A06D0090636D206AE16C226D07F059FE206A0AF0ACFC206A0EF06F
:20209000A9FE26E70E000010B1080100030E010078060020BD8401105E250100DDBF000082
:2020B000424C4520436F6E74726F6C0050617373636F64653A20256400C046C0426F6E64DE
:2020D0002073617665207375636365737300C046426F6E642073617665206661696C65642B
:2020F0003A20256400C046C0426F6E64696E6720737563636573730050616972696E672063
:20211000737563636573730050616972696E67206661696C3A20256400C046C050616972FB
:20213000696E67207374617274656400393D0000B9B200004D0D010059FD0000490001005E
:20215000F1D5000041020100518801103181011035EC000025AB0010B17F0110CDF10000B8
:20217000010000C040E201002DE9F8430546984C28782179913800F011811F3800F0B780E8
:20219000203840F02381A878E6690FF29429002800F09A80401E3FD0001F0FF2542805D0C6
:2021B000401E61D0401E58D0BDE8F883687808BB01230227628A637268892771A08122B9A4
:2021D00004F15C000EF0B4FEE66930463946002280A30DF0E8FBE469281D0BF01BFB034699
:2021F0000321002220460DF0DEFB0820FEF70EFABDE8F8834FF6FE70A08100272771022152
:2022100077A33A46304667710DF0CDFB6878032143463A46009052E00027E770E878696883
:202230006070EA7804F180009046D20008F03EFA3046022171A3CDF800803A460DF0B3FBF2
:20225000607828B1E06903213A4671A30DF0ABFB4FF0FF303A46A0702FE0E8780221002267
:2022700072A3009030462BE0002626714FF6FE70A081667166824FF0FF3366720427A37051
:20229000A888A7720CF048FAE06902216CA332460DF089FBA8790090E06903214346324614
:2022B0000DF081FBE069394632460EF0DBFCE069062132460EF0D6FC324605214B46E06950
:2022D0000DF071FBBDE8F88368892083E81C0BF0A1FA03460121002230460DF064FBE0698F
:2022F000022100225AA30DF05EFB0022E5E702294DD16978E069162942D029790B292ED0B0
:20231000012902D1297A0A2929D02979132915D0012902D12A7A122A10D07E290BD07F2937
:2023300006D06079002832D0284605F095FB2EE029894AA326E0297A4CA323E001290CD073
:20235000A179012903D001210026A17101E00026A671E179324649A30CE04CA307E02979BC
:20237000012903D0E96809784CA301E04FA3297B00221646009104210DF015FB667206E019
:2023900029794EA30091002204210DF00CFB297905F10800FEF7ECFBBDE8F88368780E38FC
:2023B00003D0801E0ED0BDE8F883A88841F2054181420BD1A86890F903000421002244A38C
:2023D000404227E70820002104F000FEBDE8F88308020020436F6E6E656374656400C0463F
:2023F000436F6E6E656374204661696C656400C0526561736F6E3A20256400C0446576694B
:2024100063657320466F756E6420256400C046C03C2D20546F2053656C65637400C046C054
:20243000446973636F766572202D3E00506172616D205570646174653A20256400C046C0A5
:20245000446973636F6E6E656374656400C046C0496E697469616C697A6564004D54552047
:2024700053697A653A20256400C046C046432056696F6C617465643A20256400577269749E
:20249000652073656E743A20256400C05772697465204572726F7220256400C05265616430
:2024B000207273703A20256400C046C052656164204572726F7220256400C0464154542090
:2024D0005273702064726F7070656420256400C052535349202D64423A2025640000704772
:2024F0002DE9F047CC4C20780E46F10BADF1280DC90340F08480B00871D2E069216A720863
:202510000ED2F00828BF86F0040680F08081700904D309F0DBFA86F0100678E1002077E180
:20253000858861B904F11600BC4A00904FF6FF71022301200FF08AF80146216219B304A805
:2025500000900027019702230293FF220392E28A284608AB02F0C2FC58B99DF821009DF813
:202570002020216A12EB002204D0498928460BF01BFE216AE28A08463B464FF6FF710FF0BF
:2025900061F801462162A069002918BF86F001062CD168B14368E1695BB188880022012117
:2025B0009847A069E7694368B888032100229847E16988880FF042F804280BD10CF034F800
:2025D000021C07D0A06928B143681BB1E0698088042198470DF0D4FE86F0010617E10020E4
:2025F000014603F067F818B186F00206012102E0022186F002062078FEF79AFC07E108F043
:2026100069FA5FEA000800F00081054628784FF0010AB03800F0EE80401E00F0E3801F3802
:2026300040F0ED80A878801F00F0D880C01E00F0BE80401E4BD0401E33D0401E00F0C98069
:20265000801E40F0DF80687806281FD1B8F804000EF0F0FF071C19D0A07B401E12D0401ED9
:202670000ED0401E12D1002140F209400A4601F05BFBB8F80410387805220EF0D7FF05E0A4
:20269000A988F8E7A888797903F0E8FEA069002800F0B8804368002B00F0B4806A780221C7
:2026B00082E00EF01DFA002800F0AC80A06948B107683FB12869009069892A7B6B7BE81C4C
:2026D000B8479FE0688951460EF0ACFF9AE068780027002858D1A879400855D3E069002867
:2026F00052D10DF1120039460E220EF02FFCA8880EF0A0FF071C00F08580686948B9787917
:20271000B91D06228DF818000DF112000DF0CCFF1DE0D5F8149099F81000062209F11101F3
:202730008DF818000DF112000DF0BEFF07F10C00B91D06220DF0B8FFB81D062209F1110163
:202750000DF0B2FF99F8100040F002007871A8799DF81F10C0F3800008438DF81F00A879D7
:20277000000905D39DF81F0040F008008DF81F000DF11200414602F09DFF20B9207802211F
:20279000FEF7D6FB41E01527A06900283AD04368002B37D0A8886A7851469847002F31D036
:2027B000A06903213A464368A88898472AE0E878291D002207F0B4FB0A2823DA410001EBCE
:2027D000800005F10C0225300421C0B205F0DAFE18E0A888297B08F009FC13E0A8880AF0C6
:2027F00051FF0FE02F7957B96888E9882A890BF0DBFC04E0297905F10800FEF7B9F9BAF116
:20281000000F02D028460DF067FC86F40046B0B20AB0BDE8F087C046B8080020C42701002F
:202830002DE9F84FC24DDFF80C832968DFF808A3887C0EF07BF82A6800210446517104F17A
:202850002E062868BD4D0BF0C1FB0120607104F5937998F80100401C88F80100182780209F
:2028700008F0FEFF20606969C160B548018949007180C079B1884000307049003089B1809A
:2028900000013081314620460EF0C8FE0520A08120460EF0BFFE28680EF0B8FE062210F8FA
:2028B000081FC1F3801189F80010811C04F590700DF0FAFE2968A34D0A680020107141F6B5
:2028D0000202A1792868794342520022A17979430144001D4A80A1797943425001212046D6
:2028F0000EF090FEA27929687A4311448873A1792868794308440021C173A1792868794316
:202910000844807BF072DAF80020A079296802EB401278430844026101F11400A1798A4AC5
:2029300079434250A0790EF069FEA279DAF8001052018850A2795301C85820B9072120469D
:202950000EF0C0FEF0E0DFF804B2DBF8000000EB02100EF04FFEA179DBF80020DAF8000054
:20297000DFF8ECB102EB0112031D49015A50021DA3795B0104F16801D2580A60A2795201C8
:2029900083588B60DBF81410097894F806E0CA074CBF102200228B074CBF202300235FEAFB
:2029B000417C4CBF4FF0400C4FF0000C09074CBF802100211A434CEA020200EB4E100A435F
:2029D00042F00F020272DAF80010A07901EB40110B224A72DAF80000A17900EB41100422C1
:2029F0008272DAF80010A07901EB401059490A78012A02D10123C37203E0DBF828100A78B1
:202A1000C272DAF80000A279636A00F10C0152018B50A17900EB4110A16A0174DAF80000E4
:202A3000A17900EB4110A16A090A4174DAF80000A17900EB4110A16A090C81740821464869
:202A50000078FEF775FA2168A2792868CB687A4302449360CA680A61CA688A6000F10C0275
:202A7000A17979430C30525C02F0EF024254A0792968784301F10C020C31125C02F07F028A
:202A90000A54A0792968784301F10C020C31125C02F0F00242F002020A54A17928687943DA
:202AB0000844417B01F0F00141F001014173B688DBF830C0DAF80010A37940F6C4104643A3
:202AD000DCF8000001F114025B01361AA6F51676D650A27901EB4210C17C01F0F00141F068
:202AF0000401C174A17928684F432168C0194860B9F83A001B2804BFB9F83C101B2909D13A
:202B1000B9F83E00B0F5A47F04BFB4F86611B1F5A47F03D0142120460EF008FE0F4908204D
:202B30000870A17988F80210BDE8F14FFEF724B8184F0020684E0020844E0020AC4B002045
:202B5000844C0020804E00205C4D00208C4E002024270100734F00206E4F00206F4F0020DB
:202B70002DE9FF47C34C0F460646F80B80F05881B80880F04981607ADFF804A3B90F80F063
:202B9000CB80E079390914D2B80BC0F06A8104F13C000EF0BBF9061C08D0706830B1756888
:202BB000F068B6F9241000222023A84727F4005757E1012800F0AB80E06870300EF08CF91D
:202BD00068460CF00FF920B1009904F198000DF0BFFF00254FF00108E570A74884F80580CF
:202BF0000EF046F8A5492A4604F160000EF082F950460068006B80476061A2782169A369BC
:202C1000012AA0EB010018444FEA1030A06105D163781BB9E169B0EBC12F3AD9DFF86492DD
:202C300084F80280A9F1150000686570000A30D340F60900A08494F8310000F0F00040F05D
:202C5000010084F8310094F8300000F0F00084F83000A5620EF046F94B4603F6FF721168B6
:202C70006FF0020C21F00201116004F12401C3F8FBCF854AC3F8EB1F11688908FCD3C3F88B
:202C9000FBCFD3F8FF1F41F00201C3F8FF1F0EF0ADFC7E4A10687E4920F00200256140F4EA
:202CB00000701060032341F8043C41F230038B604046086050238B6008604FF4CA638B6025
:202CD0000860237841F80C0C15601BB9E06838300EF020F902200CF03DF9112006F002FD06
:202CF000307C10B90E2006F0FDFC207A18B1257205200CF02FF9674965710878A57140B1E2
:202D10000D7004F1BC0004210EF00CF901E00020E07127F00807A4E020B104200CF01AF94D
:202D300000206072B168088840F602084FF0000980450AD0B0F5C15F07D00A8B4FF61F60CC
:202D5000104040F43470088306E00A8A4FF61F60104040F4347008822069F0B1DAF8540070
:202D7000016804208847C0B1DAF800002569006B8047F168401B738AF060020BF2609818D4
:202D90008842F06002D240184008F06040F6C41181422CBFB0F5FA7FF16094F8310010F060
:202DB0000F0F0CD1718C08F10700884207D1B56930466FF480714A464FF00073A8473649D1
:202DD00004F160004A460EF095F8607860B10220ADF8040001A80CF025FEBDF80C0084F8BA
:202DF00001904011A4F860010120E07084F804900AF09CFA7569494630464FF080630A467E
:202E1000A84727F000572CE005F044F904F144000EF07CF827F0020708B147F0020720E043
:202E30000EF060F8014604F140000EF06FF8061C12D0356AA8080FD225EA05003062084623
:202E50000EF0D4FB706850B12A46F068B6F9241075680023A84702E008460EF0C7FB27F417
:202E7000804727B104F1BC0039460EF05BF80090BDE8FF8738120020518A00007DFD0000A8
:202E90008C0100101500044010100440000004600C410440891B0020D95D00002DE9F04F84
:202EB00009AFADF13C0D08900A92388809911E46ADF81800101C08BF002000F08481002785
:202ED00000F101094FF0FF3A4FF0010BB8466CE1252940F063811078521C0A922D2818BFB9
:202EF000ADF8068005D15846551CADF8060010780A9530281CBF4246434605D10A990878A3
:202F10005A465B46491C0A912A28CDF80080554616D1306804930A99CDF808A0C01C4B1CC5
:202F300020F00300001D306050F8044C0A93002C0878009418D5ADF806B06442009413E0D7
:202F500044460AE0610001EBC4010918A1F130040A9908780094491C0A91302801DB3A28A7
:202F7000F0DBCDF808A004932E282BD10A9908782A2801F101010A9111D13068CDF8088055
:202F9000C01C20F00300001D306050F8045C002D48BF454608782B46491C0A9111E04546B1
:202FB00043460AE0690001EBC5010918A1F130050A9908782B46491C0A91302801DB3A2861
:202FD000F0DB02930AB1224604926C2804D04C2818BFADF8048005D10A990878ADF804B09A
:202FF000491C0A910BA9CDF80C800FAB07916428059300F08B80692800F08880BDF818C035
:20301000752872D078286ED06F286AD0702850D063283DD073281ED009980A990128A1F13A
:2030300001010A9115D96B490C68B5F1FF3F03D0A84288BF6D1C00D8099D029508A80AA9E4
:2030500032466B46A0473F180A99039801F1010974E040462AE030680A99C01C20F00300B1
:20307000001D306050F8040CBCF1000F01F10109014608B955A0014607910DF089FC039092
:20309000B5F1FF3F5BD0A842C4BF281C039056E03068C01C20F00300001D306010F8040C4B
:2030B0005D468DF82C000A990395584601F1010945E0082035680490E81C20F00300001D25
:2030D000306050F8041C082210230FA809F05EF8401E0790402101700A99079801F1010980
:2030F00029E0082302E0102300E00A230A99306801F10109C01C20F00300001D306050F84F
:20311000041CAA42BCBF2A1C049210E00A99306801F10109C01C20F00300001D306050F831
:20313000041CAA42BCBF2A1C04926FF009030FA809F02CF80790059D281A0390009C241AF5
:20315000BDF8065000945DB906E008A8202109AA0CF053FC009C7F1C641E0094F5D5039823
:203170000546401E039075B9BDF80600E8B10098401E009019D408A8202109AA0CF03DFC35
:2031900000987F1CF4E70798411C0791017809AA08A80CF032FC03987F1CE1E708A809AA16
:2031B0000CF02BFC7F1C09F101094A460A9812F8011C401C00290A907FF48AAE089808B1C1
:2031D0004146017038460FB0BDE8F08F286E756C6C2900C01C270100BB482DE9F84F0025F1
:2031F000BA4CB849056094F8E200002800F06581012800F02F81B64E02283CD0032840F089
:203210005C8151F8250CD4F8B8100029A0F5C060C4F8D400B8BF49420028B8BF404281425F
:2032300026DA4FF08057D7F8A4014568B4F8BC0030214FF47F42082300903046A847D7F89B
:20325000A4014568B4F8C00004214FF4F802122300903046A847D7F8A401B4F8D070456807
:2032700020214FF440620A2330460097A847012584F8D8501CE151F8258C0DF00BFD2F46B4
:2032900000B901273946934F38680028FCD0B146012609F10409D9F82CA03E6009B10DF031
:2032B000FFFCCAF30720C4F8BC000DF0F3FCAA4600B9B2463B68002BFCD0D9F800B0BAF154
:2032D000000F3E6001D00DF0EBFCCBF38440C4F8C0000DF0DFFCAA4600B9B2463B68002B37
:2032F000FCD0D9F81C90BAF1000F3E6001D00DF0D7FCC9F38120C4F8D000B8F5C061C4F809
:20331000B81000F09C8094F8D80068B9C4F8D410D4F8C000C4F8C800D4F8BC70C4F8C470AC
:20333000D4F8D030C4F8CC30D4F8D410D4F8BC30002954BF02206FF0010004F1C802176895
:2033500001EB41014018411000EB917107EBA1001060D4F8C810C4F8C43000291CDD1E29D9
:203370003CDDD4F8CC0030B93429B4BF15391E21C4F8C81025E02A29BABFD4F8C8000B380A
:203390001E20C4F8C800D4F8C4003F28B4BF401C3F20C4F8C4001FE0D4F8CC00032812D012
:2033B00011F10B0FC6BFD4F8C8000B30301CC4F8C800D4F8C4000028C4BF401E051CC4F847
:2033D000C450032508E011F1150FC6BFD4F8C8001530301CC4F8C800C4F8CC504FF0805777
:2033F000D7F8A401B4F8C43030214FF47F424568374800930823A847D7F8A40104214FF49F
:2034100000321123456832480096A847B4F8C860D7F8A40104214FF4F802122345682C488A
:203430000096A847D7F8A40120214FF440620A23B4F8CC60456826480096A84701E084F85B
:20345000D85040F2FF50404502D8801C40452FD2082030E051F8251C1F4F4BF2F520484325
:20347000060A3868C0F3814001280CD11B480068006880470BF032F90DF018FC3111C010CF
:20349000484306EBE03694F8E50030B91448006820F07F408019460801E084F8E5501148CB
:2034B000310C0660012741600F4D8760287808B90B2000E0052084F8E40002F007FFBDE8BF
:2034D000F88FC0462D400C402C500C40400B002000A00C4000800C40B43F0050EC0100106B
:2034F000102009403C600C40B92501002DE9F043B648B74D0178002985B04FF01D0807D01F
:20351000052908D0062900F0A780072918BF082900F0598151E1AF4E3168086800F1080715
:20353000387810F00F0F1CBF00F00F01062908D000F00F02022A1CBF00F00F00012840F06B
:2035500042810622B91C68460DF0AEF83878A24CC0F3801900F00F0001283BD1062207F10C
:20357000080102A80DF0A0F83F78FF0902A938460EF038F8D0B12068807C022818BF0328AC
:203590005DD105F10D0102A80EF028F8002856D021680120C8720622707940F004007071C9
:2035B00002A920680C300DF07FF813E029788F4210D10622691C02A80CF07EFD50B1287863
:2035D000717960F38201717106222068691C0C300DF06AF8694648460EF004F800282ED00C
:2035F00070696946001F0DF0F5FF002827D1294668460DF0EBFF01462068807CFF291FD01D
:2036100008FB01F16C18002818BF02280BD0012818BF032813D16A5C7069611C001F0DF0D6
:20363000D1FF10280BD070696B46E21D2146001F0DF0C4FF06226946E01D0DF035F8C2E028
:20365000002818BF0228FAD1706901234A466946001F0DF0AFFFB6E0604E3068016801F129
:203670000807387810F00F0F1CBF00F00F00012820D10622B91C68460DF016F83878DFF82C
:203690006091C0F3801400F00F00012846D1062207F1080102A80DF007F83F78FF0902A96A
:2036B00038460DF09FFF20B3D9F80000C07A022818BF03287CD105F10D000DF077FF0028EC
:2036D00076D105F10D0102A80DF088FF00286FD0D9F80000062202A90C300CF0E5FF707951
:2036F00040F004007071062202A9E81D0CF0DCFF14E02878874211D10622691C02A80CF064
:20371000DBFC58B12878717960F3820171710622D9F80000691C0C300CF0C6FF69462046E7
:203730000DF060FF002843D0294668460DF04EFFFF283DD0D9F8001008FB00F7887AEC1965
:2037500010BB887C0DF0F2F8814699F82601022811BF0328E95D00F00100814228D109F50E
:20377000907506222946601C0CF0A6FC00B3012089F826010622707940F00800707169462E
:2037900028460CF091FF0EE03069EA5D611C001F0DF018FF10280BD030696B46E21D2146DE
:2037B000001F0DF00BFF06226946E01D0CF07CFF31680A680020107105E000200CF0EEFDF0
:2037D00086200DF0EFFE05B0BDE8F0836F4F0020AC450020D04B0020144F0020AC4B0020B8
:2037F000184F00202DE9FE4F0F46994C0168E16241688068E0609748A16080479648E16A48
:203810000160A168DFF870B24160E168DFF8648281609249002FA246C16063D03D68E87862
:203830008DF8080028798DF8090002A80DF0B6FEA86808B18A490160E86808B18949016028
:20385000894C2878207068786070A878BE68A07031787368E170B26863602E69A260796821
:20387000E6610868E06068692062A8696062287F84F828002A6AE262786886681EB9002033
:203890000CF08CFD00E066617868C06818B900200CF084FD00E0A0617868406818B900201C
:2038B0000CF07CFD00E020612869E061F86881680E6806B96E4E6D494FF001094E60C6683B
:2038D00081F801902EB900200CF068FDF868454601E045462E6000685C46FE68A061706838
:2038F000E06106E000200CF059FD4FF001095C464546286861494668621C04F114035020C7
:20391000B04710B1286880688047DAF8080080475C4F0026834669467E7059483E70042253
:20393000206130460BF062FC0098B0F5801F0CD020B90BF0E1FF04F001F808E00AF0ACFB45
:203950000DF030F80420788001E00BF0D5FF4E4FB0462868C7F808808069A660804778606E
:203970004A48468080F8009014200DF0D9F8FF211422A0620DF0EAFAE01CFF2102220DF05F
:20399000E5FA14200DF0CCF8414908600868142231460DF0DBFA3046FCF748FB48460AF02E
:2039B00015FF3C480188FF2906D1022101807822001D31460DF0CAFA03200DF0EBFD042018
:2039D0000DF0E4FD05200DF0DDFD06200DF0D6FD072009F065FA304E0820307006F1240027
:2039F0000DF0C8FD09F0FAFC06F1360705200A213A460CF00DFC38B14046C0F10901401C77
:203A100007F8011B0A28F8DB30781021FDF790FA2F68224909200DF10A0201AB7D680870E1
:203A300010204146A847A06AE2690A270A309DF80A1000F8011BDAF80C107F1EF7D1921E4A
:203A50005846E261884702F001F8BDE8FE8FC046540C002041490010F84400208417010071
:203A7000D5F7000099050100480F00205C11002047D500001812002008100020C5FD000067
:203A9000890601000C1200203C1B0020C40E0020801B0020F00C0020B8080020931B00205A
:203AB000F0B58E4E8E4C37788E4A8F488F4B90490D2F83B041F2064500F20781DFE817F055
:203AD0000D0105010501050105010E00490005018900C400C400E200E200E90085494E88F1
:203AF0001E80022E10602AD940F20440361A24D0761E24D040F2FB30361A17D04FF44060BC
:203B1000361A1CD0761E18D0761E012E17D9361F13D0761E13D0761E0FD04FF47E70361A87
:203B30000DD0761E09D0F61E07D00DE0887B4D8025280CBF2720401E88736F483DE00020D7
:203B50000CF02CFC852076E000200CF027FC842071E06A494E881E80022E10602FD940F201
:203B70000440361A28D0761E29D040F2FB30361A1BD04FF44060361A21D0761E1CD0761E4C
:203B9000012E1CD9B61E0ED0B61E15D0761E16D0761E11D04FF47E70361A10D0761E0BD0C7
:203BB000F61E09D010E0564807E0887B4D8025280CBF2720401E8873524810603DE00020C4
:203BD0000CF0ECFB852036E000200CF0E7FB842031E04D498978FF2953D0106040F20446B6
:203BF0001820414349480068851C6D5A1D80AD1B012D474B71D94FF47F76AD1B11D04FF405
:203C10004066AD1B11D0AD1E012D84BFED1E012D0BD9AD1E012D60D940F2FD36AD1B06D1B6
:203C300003E0801C41F202454552136005E000200CF0B4FB85200DF0B5FC207803B0BDE87E
:203C5000F0400121FDF774B940F204424888188090421CBF41F2084290423ED041F60402BA
:203C7000904211D12B4C2C4A25682C4800680023CDE9002355F8086F294B0222B047294969
:203C90000880F7BD4888188000200CF087FB85201FE04888188002280DD940F20442801AA4
:203CB0001BD040F6FC72801A05D0083815D04FF47F72801AE8D1887B801CC0B2B528A8BFF5
:203CD0006620887300204880F7BD00200CF066FB8420BDE8FE400DF065BCF7BD6F4F002003
:203CF0006E4F0020204F0020B30E0100504F0020CC4C00209C4C0020F5B700006C4C002003
:203D10003128000079B70000684E0020804E00208D670000F04E002002000080EC4E002018
:203D300099EF0000424F00207CB5954D144602460026A2F58062182A1AD8DFE812F01501D3
:203D50000E010601FD00F500EF00E700E1001900D500CD00C500BB00AF001900A700850065
:203D700073006C0057004E0043003A002D002400282880F28980022940F0868021880DF00F
:203D9000F5FB0646F9E0012940F0F680002C00F0F3802A461232B7E0102940F0ED80002C52
:203DB00000F0EA8028465030102221460CF07CFCE3E0012940F0E080002C00F0DD802A4638
:203DD000921DA1E0262940F0D780002C00F0D4802A4602F160002622E7E7012940F0CC80DE
:203DF000002C00F0C9802A46521D8DE0602900D144B9012940F0C080002C00F0BD802A4648
:203E10000D3281E005F18600214660220CF04CFC01206873B1E0012940F0AE8020780DF09F
:203E3000A1FBAAE0012940F0A7802078022800F3A3802A460C3210702078022814BF301CE4
:203E500001200DF08BFB98E0072940F09580611C684606220CF0CCFA20786946324606F0F7
:203E70005FF804460A2C0FDA0DF074FB38B9204603F042FC0BF08AFE09F0B0FA7DE02A468B
:203E900001202C32105578E0022676E0012973D12178042970DA2A460E3254E001296BD190
:203EB0002A462178D07B0028D17366D12078012863D1E1E701295FD1217807295CDB1029AB
:203ED0005ADC2A460B323EE0012955D121780A2952DA2A46093236E001294DD121780229BC
:203EF0004ADA2A4608322EE0002945D10DF032FB10B90CF0B3FCBDE72A460121103222E07F
:203F1000012939D12A460A3221781CE0012933D12178022930DA2A46D21D14E010292BD198
:203F30002A4602F140003FE7012925D12178022922DA2A46121D06E001291DD12178042965
:203F50001ADC2A46D21C117017E0012914D12178022911DA2A46921CF5E702290CD120881D
:203F70002A461432108008E0012905D121780229DCBF2A1C521CE6DD182630467CBDC0463A
:203F9000B80800202DE9F04F8246DAF800600C465FEA0208ADF11C0D14BF00214FF0FF3113
:203FB00006F1480083460CF038FD002818BF0B2040F00D8100258848F460B8F1010F057059
:203FD00007D0657002200BF059F906200BF056F901E0012060702078012840F2AB80801EB8
:203FF000012868D9801E012833D9801E012800F2DF800CF077FF06904FF0805000F5EE77EB
:20401000D0F8DC01A378466A009321782846062908BF0120019001200290A068228AE1682E
:204030006368B047814606980DF0E0FAB9F1000F40F0C080B8F1000F02D00CF005FB02E0E1
:2040500050460BF0C8FA002800F0A4803868806A2AE00CF047FF06904FF0805000F5EE77EC
:20407000D0F8DC01012306680093A168A27860682478AC46042C08BF9C466346B0478146AD
:2040900006980DF0B3FAB9F1000F40F09380B8F1000F02D00CF0D8FA02E050460BF09BFA6C
:2040B000002877D03868406880474A49C1F8B0510D6081467EE00CF015FF06904FF08050DE
:2040D00000F5EE76D0F8DC01E38A87690093E0680190208B0290A0780390207D04900121CE
:2040F000059122782846022A08BF081CE1786268A368B847814606980DF078FAB9F1000F41
:2041100058D1B8F1000F02D00CF09EFA02E050460BF061FA00283DD03068006A80475FEA33
:20413000000947D13068C569A168E28A2369E078A847BEE70CF0D6FE06904FF0805000F531
:20415000EE76D0F8DC01E38AC7680093E0680190208B0290A0780390207D29460490012095
:204170000590257805B9014608466268A368E178B847814606980DF039FAB9F1000F19D145
:20419000B8F1000F02D00CF05FFA02E050460BF022FA08B914201AE03068406980475FEA61
:2041B000000907D1306802692169E078904780E74FF0FF39B8F1010F05D002200AF0CAFE02
:2041D00006200AF0C7FE58460CF0A4FE484607B0BDE8F08F50450240921B00202DE9FE4F3E
:2041F00005467F48002400680094C0090ED37D48007858B97D497C4851F8112C104040F0F5
:20421000817041F8110C202009F068FF012D40F0E280DFF80892D9F8DC00012840F0D88018
:204230000220C9F8DC000BF0B7FE012009F056FF5FEA000805D00120C9F8DC000BF0BCFEF7
:20425000CBE00CF06BFEA34602906948694DC0F800B0A86A016801208847012804D15846ED
:2042700008F0B2F9012000906348644FC0F800B0386811200CF02CFD00B1012410200CF01C
:2042900027FD08B144F002040F200CF021FD08B144F004040B200CF01BFD20B12868584E73
:2042B000016B308888470A200CF012FD20B12868544E016B30888847534801260660286818
:2042D000816944F020008847504806600CF0FAFC00F001010191400814D2286A81684C4810
:2042F00088478246BAF1040FF7D0BAF1010F04D1286A42684648032190474649086820F02E
:2043100003000860584600F0E1FC2B683868986B8047019801280CD0BAF1010F04D1286AFA
:2043300042683B48314690473A49086840F0030008603148066028684169204688470B20EB
:204350000CF0C6FC20B128682D4BC16A188888470A200CF0BDFC20B128682A4BC16A18889C
:204370008847294806600322C9F8DC20274BC3F800B02868416B204688470128F9D13868C4
:20439000042009F0ABFE0446194806603868144800688009FBD30098012802D1304608F079
:2043B00013F90CF07DFC082009F098FE07460298C9F8DC600DF0CAF81748008807F096FDA1
:2043D0000BF0FAFD57EA040018BF4FF0FF3804E06FF0040801E06FF001084046BDE8FE8FF9
:2043F00014100940280C0020FFFFFCFC150009400C400940B8010010000222432C2009403E
:20441000122201000E22010028200860800104430040034024220840B4250100400B002058
:2044300010B50B7884074CBF43F0020303F0FD0304064CBF43F0800303F07F0304074CBF0D
:2044500043F0080303F0F70384064CBF43F0200303F0DF0310F0AA0F0B7004D0107840F0A1
:204470000C00107010BD18B9117801F0F301117010BD2DE9F8430D461646287802281F4617
:204490004FF0000864D1686801784078089C01EB002189B220001CBFB1F5285F0B205CD123
:2044B0004FF42850091A0AD0491E20D0491E49D0491E24D0491E2AD0A23943D048E0DDF8B6
:2044D0002490E8680CF044FD214680B2421A4A45ACBF4C46041BA4B26018162804DA3C8045
:2044F0002246E86801440EE04FF00D0834E0E8680088022139803070000A70702CE00620E9
:2045100038800622E96830460CF0CEF824E0E868B0B108213980018831700188090A7170E4
:204530004188B1704188090AF170818831718188090A7171C188B171C088000AF0710BE092
:20455000398009E001203880E8680178317003E0A7F800804FF001084046BDE8F2832DE966
:20457000F0470F4682B039780024022974D1804678680A9E0178DFF8E8A09146427801EB85
:20459000022189B24FF42850091A1D4608D0491E2BD0491E50D0491E3BD0A3395AD05BE0F8
:2045B000F8680CF0D5FC80B2B04204D3A819162803DB0D2451E007244FE0FB682A464946C8
:2045D00098190CF071F8AD19F868ADB2C5F11602002140190CF0BAFCDAF8000000281CBF61
:2045F0000268002A39D0002123E08EBB022DE0D199F8000099F80110FA6800EB0120108090
:20461000DAF8000000281CBF0268002A25D001210FE0EEB9062DCCD1F868062249460CF091
:2046300043F8DAF8000000281CBF0268002A14D003214046904710E056B9012DB9D199F819
:204650000000002813BF0128F9680870802404E00B2402E0032400E001242046BDE8F68701
:20467000781B00202DE9F04F0C46E00789B00BD50CF02EFA28B1002181607948006800B1F7
:20469000804784F00100E8E02007764D71D576480168887C0CF04AF9064606F5907096F897
:2046B00026A107904FF000086F4801688A7CC146FF2A04BF00200BF071FE079A51462846FC
:2046D0000CF040FF07461D207843009005EB000B079950460CF086FFA8B1FF2F22D00098F7
:2046F000285C40F0020A0BF10100079006220AF0010086F8260106F5907007990BF0D4FF25
:204710000BF107080EE0079950460CF017FF002818BFFF2F06D00BF10D000CF047FF08B141
:204730004AF0020A50480068C07A022818BF032806D105F10D000CF039FF08B905F10709E8
:20475000002006905346F08E000905900022B18E0491708E0799009140080390CDF8088091
:20477000CDF804900020B1790CF0E4FE84F0080073E0E00610D500200690002100220023F2
:2047900002900591049203930191009202200CF0D1FE84F0100060E0E00413D5E91D05F118
:2047B0000D000CF0C3FE31484268314800784FF4805109F0B5FC10B18E2006F097FF84F4DA
:2047D00080504AE0A00505D50CF064FA294901200860FEE7610504D505F0CBFE84F48060C1
:2047F0003BE0600405D5812006F080FF84F4804033E0A00430D5204D286810B100200BF06D
:20481000CDFD4FF0FF3028600CF08CFE1B4D296851F8202F684690471948016A426A2D681F
:20483000009101921749029100F128014A6809781368C06903938DF81010ADF812006B46BD
:204850002E68114A11491248B0471249086002F0FDFC84F4005000E0002009B0BDE8F08F59
:20487000204F0020AC450020184F0020784E00206E4F0020FC002043044F0020F04E00200E
:20489000480F0020D10A01002C4D00206845002088490020EC4E00202DE9F04F04467848A5
:2048B0008E46016894461F46BEF1000FADF1440D4AD0BCF1000F47D09EF80020012090402B
:2048D000014241D0BCF80000B0F5C15F2FD1DCF81400DCF818606B4BDCF81C50DFF8A8A1B1
:2048F0000E904FF003080DF134090F9618681095C0F3036B59F8046FB6B10021331F0520D7
:204910000A4653F8045FAA4506D0401E01F1040102F10102F5D107E0052A05DA705820F4E2
:20493000702040EA0B407050B8F10108E2D1C4F804E0C4F808C00CF0D5FA544D8346287844
:2049500020B158460CF052FE002095E002F016FD4F49086840F0020008600AA80CF0A8F802
:204970004FF0050905F1BC000AAA4A49CDF8309009F00EFF0AA80CF072F800264FF0FF0AD0
:2049900005F1600019210AAB8DF83060424ACDF82CA009F0EBFD0AA80CF08AF805F1F00099
:2049B0000AAA3E49CDF8309009F0F2FE0AA80CF056F84FF00108CDF82CA005F17C001A21BC
:2049D0000AAB374A8DF8308009F0D0FD3549324605F19800134609F09FF833480CF048F971
:2049F000324A3346042105F14C000BF02FF84FF6FF70A5F86001AE702E716E71AE71EE715D
:204A10002E726E722E61C5F81C902B7885F80180581C287058460CF0E9FD1FB903AF3846D9
:204A30000BF05CFF386820607868E060387C84F811802074788A60821D4DA5616561F86801
:204A500000B1A061B86800B160613146782204F1200007F001F804F1380031460AF086FECA
:204A700068460CF0FAF91349029404F1700032466B4609F051F8204611B0BDE8F08FC04676
:204A9000D4210840541300500200F8443812002000200940190701007DFD0000E19D0000E8
:204AB00071B50000110B0100518A000061D900000BC20000B90E01002DE9FE4FDFF8FC8142
:204AD00098F8011011B900200BF068FCFCF724FA0546002405F6C4150027794EDFF8E4914E
:204AF0000EE038460BF022FF417939B1316882790A552946641C0CF011FDE4B27F1CFFB2AC
:204B100099F800008742ECDB98F80100844205D000200BF043FC82200CF044FD98F801006E
:204B3000012840F0A980002701E07F1CFFB299F80000874280F29A8038460BF0F7FE0546F0
:204B500068790028F1D03068A979027891421CBF00200BF023FCA87986E0306810F809002F
:204B70000BF0E4FE00684268DAF808109068814204BF3D4609F1010900F08D808FE0306843
:204B9000047801210FE0D8F80420435C02F5AD7209FB03F509FB04FE555B32F80E209542EE
:204BB00038BF1C46491CFFB2B942ECDB4FF6FF700CF0B0FC834620460BF0B8FE40F6C41569
:204BD00000684168CDF800A000204FEA5B076F4382460291CDF804B016E020460BF0A6FE13
:204BF00001680A78802A04BFDBF810305F610978402907D1344A8079136803EB401107F58B
:204C1000A062CA610AF1010A0098824554DA306810F80A008442F5D0D8F8043009FB00F295
:204C3000991803F5AD73C9899A5A4B08934203D2009B891A8B42E5DA0BF078FE0068D0F8ED
:204C500004B0029A0198DBF80810936800EBD0704010A1F6C41105FB0030FCF765F90028E5
:204C7000BBD0306810F80A00BDE8FE8F00200BF095FB82200CF096FC98F8011030680CF0AD
:204C900045FC306800780BF051FE00250168D1F804A04FF001096F1CA145FFF65EAFEDB213
:204CB000002D1CBFF8B20028A2464FF4C0797FF466AF3068047879E72046D5E7684E0020B2
:204CD000004F00207B4F0020844E00202DE9F84FDFF8F4B10746ABF13500DFF8E0910068D2
:204CF000800880F0D98071480068006880477A490831D1F8008000254FEA28725FEA985194
:204D100002F101020AD2C0F13E0110F10A0F4FEAE101D8BF08218A42B8BF0A1C644BD3F8E9
:204D30007C11C1F304611629A8BF20391B68C3F30443162BA8BF203B9A468918162905DA9C
:204D500011F10A0FB8BF6FF0090100E01521594B594E01F01F0242F4F8521A80326812F01F
:204D7000030F18BF0125D20828BF45F002050FB145F004054A4692F90730C31A052B04DADC
:204D90009379AB4208BF918866D0DFF834E10F28A0F10F0C25DB0CEB0013A3F1F00C4FEA52
:204DB0002C26072E88BF07263446062C88BF06245EF82470042303EB84037446E358DB1B5A
:204DD00003F0FF04EF0824BFC3F307273C44AF0824BFC3F307473C446F0828BF04EB1364AD
:204DF00001E0002426465EF826E0EF080EF0FF0324BFCEF307273B44AF0824BFCEF30747E5
:204E10003B446F0828BF03EB1E63A4B2ACEB0626AAEB01017443002904F1800403EB142308
:204E3000D8BF0121342408F0FF074C43A1B27943B1FBF3F14FF6FF738B4238BF191C8028CD
:204E500089B2918005DA10F1800FB8BF6FF07F0000E07F20D07195711A4800681F291060EA
:204E70004FF0000008D340F2FF128A4206D24908401C8A42FBD301E01F219180134F0F39FE
:204E9000090940EAC10047EA0001CBF8FB1F0026CBF8FF6FBDE8F88F0D490E4F4A46082008
:204EB0000F60921D1070BDE8F88FC046EC0100103C1100506E62084024220840681B00202F
:204ED0009C130050082009403500094000E7A48030100940FDFDA400AC3F00502DE9FE4F04
:204EF0000E468246307AC10693461C464FF000090CD558460CF006FB030000F0EA800A228D
:204F10003146504698475FEA00094DD13078DDF838800D9D0C9F02281AD17068017840787D
:204F300001EB002189B24FF42052891A012910D9891E3AD0491E14D0FD397BD0491E00F0DA
:204F50008280491E6ED0491E74D0491E00F09780ADE0002D2AD1F06801783980027841681F
:204F700089E0002D22D101203880F0680178217000217089401C80B20CF0C0FA398860B12D
:204F90000278921C51183980418961704189090AA17002784168E01C6EE0091D39800422BC
:204FB0000021601C0BF0D2FF95E0002D68D1F0680588042139802570290A617028460DF1D5
:204FD00002010CF09BFA5FEA000821D0D8F80C50BDF802204FF6FF766B4631460CF032FBDD
:204FF00050B998F80030D8F804203C4802210CF081FA08B9ADF80060287802280AD169688A
:205010000222201D0BF050FB3888801C388001E0ADF80050BDF80000A070BDF80000000A6B
:20503000E07058E0002D2BD1F068016850460BF00EFD02E025BBF068008802213980207044
:20505000000A607047E0F0680BF082FF80B229468842B8BF4FF007093DDB814208BF002276
:2050700006D008EB01028242B2BF4246451BAAB23A80F068014420460BF016FB2BE015B141
:205090004FF00B0927E0F0680721398001782170417861704188A1704188090AE170017958
:2050B0002171C1886171C088000AA07113E058460CF01CFA5FEA00090BD00F980290CDF802
:2050D000048000953B46224631465046C847814601E04FF00E094846BDE8FE8FB427010008
:2050F000F8B57E4F04463868C16E0025002940F0F18010200BF014FD39680028C86600F0FB
:20511000E7808E6E102221460BF0CEFA39680878002840F08E80CA6ED6F8980012F80CCFB6
:2051300000F001030CF0010C634518BF0023400843EA4000C6F89800C0F34003D2F800C035
:20515000CCF3400C634506BF430803F00103002320F0020040EA4300C6F89800C0F3800357
:20517000D2F800C0CCF3800C634506BF830803F00103002320F0040040EA8300C6F8980021
:20519000C0F3C003D2F800C0CCF3C00C634506BFC30803F00103002320F0080040EAC3001D
:2051B000C6F89800C0F30023D2F800C0CCF3002C634506BF030A03F00103002320F48070A6
:2051D00040EA0320C6F89800C0F34023D2F800C0CCF3402C634506BF430A03F0010300237D
:2051F00020F4007040EA4320C6F89800C0F38023D2F800C0CCF3802C634506BF830A03F000
:205210000103002320F4806040EA8320C6F89800C0F3C0231268C2F3C022934206BFC20A33
:2052300002F00102002220F4006040EAC220C6F898008A6E92F89500030718D5C86E436882
:20525000C3F3C00098B1C87840F00800C870D6F8981023480140C6F898103868C06EC16850
:2052700021F48071C16049084900C16003E092F8330001282AD0607800281CBF717800298C
:2052900008D13968CA78130708D5002804BF7078002803D03A68052111711CE06068C0F3BC
:2052B000800040B996F8950010F0040002D10120087110E00AD00878002819BF3078217846
:2052D000317820780CF00EF9054604E0182502E0132500E011252846F2BD00BF304F002063
:2052F000FEFEFFFF2DE9F0411C4615468C4208BF854282BF00230022E5E0002C08BF002DD9
:205310000AD100290EBF00286FF000006FF0000100F0E1F8BDE8F0815FF000085FF0000E32
:20533000002C08BF8D429CBF2C1C0025070C47EA01470E0CB44208BFBD429EBF5FEA044483
:2053500044EA15445FEA0545070A47EA01670E0AB44208BFBD429EBF5FEA042444EA156430
:205370005FEA0525470847EAC1774E08B44208BFBD4200F29380870847EA81778E08B44297
:2053900008BFBD427CD8C70847EA4177CE08B44208BFBD4266D8070947EA01770E09B44295
:2053B00008BFBD4250D8470947EAC1674E09B44208BFBD423AD8870947EA81678E09B442EB
:2053D00008BFBD4224D8C70947EA4167CE09B44208BFBD420DD8E60146EA5566EF01B14225
:2053F00008BFB84201D3C01BB14158EB08085EEB0E0EA60146EA95664FEA8517B14208BF22
:20541000B84201D3C01BB14158EB08084EEB0E0E660146EAD5666F01B14208BFB84201D36F
:20543000C01BB14158EB08084EEB0E0E260146EA15762F01B14208BFB84201D3C01BB14180
:2054500058EB08085EEB0E0EE60046EA5576EF00B14208BFB84201D3C01BB14158EB08080C
:205470004EEB0E0EA60046EA9576AF00B14208BFB84201D3C01BB14158EB08084EEB0E0E3A
:20549000660046EAD5766F00B14208BFB84201D3C01BB14158EB08085EEB0E0EA14208BFF5
:2054B000A84201D3401BA14158EB08085EEB0E0EA34208BFAA423EBF2D0A45EA0465240A97
:2054D00089D3734642461E4617460B46024631463846BDE8F08170472DE9F04F6C4CE268AC
:2054F0000746880FADF1140DC0F0CF805068406808B18047E2685168664E886808B9CD687D
:2055100075B13568002DFCD00022326010B18047E0684168C86800B180475F480AF082FACD
:205530004FF00008C6F800805C4846F81C0C5C480BF09EFB40F60A09A4F82490A378A4F844
:205550002680BD6894F83000C34604F1240A00F0F00084F83000012BC4F828B094F831007F
:20557000A5F8028000F0F00040F0010084F8310001D17B7CABB1B8680088A9F1080181420B
:2055900008D0B0F5C15F05D0298B4FF60F400840288304E0298A4FF60F400840288287F8B2
:2055B00011804048016883680193C368406B00911022694620F0784040F0805003903A48B5
:2055D000029305F073F8494600E01D466B6813B118888142F9D1C5F804A0687B00F0F0000C
:2055F000687304F138000BF091FC80680088A9F10701814220D0491C81421DD03B8CEBB1CE
:2056100097F82C0097F82D30C7F824B000F0F00087F82C0003F0F00040F0010087F82D00F5
:2056300007F12002A2629AF80D00A7F8228000F0F0008AF80D0001E0C4F810803068002800
:20565000FCD0C6F80080B968237A0A8A4FF6FF301040088283B91548006801680120884736
:2056700001280FD0687B00F0F00040F0010068730F480BF0FDFA05E008F058FE0028FBD0D4
:205690000BF042FCB86846F81C0C05B0BDE8F08F381200201C1004400100070601010E0466
:2056B000712B00004C13005018000021E00100106DCB00002DE9F04F714CDFF8C0A1E56995
:2056D00088468146ADF1140D002D4AD1B9F1000F00F09280B8F1000F00F08E800AF022F998
:2056F00006460A2E23DAD8F814706674002F39D0700010216A4600EB86002330C0B20AF032
:2057100087FD90B950460778FF21102268460AF0CDFE50B93FB999F80600494600F00100BA
:205730000BF0DCFE01E00120E074E56919E004F1E60B0A2700265846FF2106220AF0B6FE16
:2057500068B97F1E0BF10E0B06F10106F3D1A07C002804BF0A2060744ED094F83660667485
:2057700000E0667C0A2E47DA002D35D170000E214A4600EB86002030C0B202F003FF607C99
:2057900008F0EAFA6846FF2110220BF0DFFB607C10216A467030C0B202F0F4FE617C0E2288
:2057B0000801A0EB410000194946E6300AF07CFFD8F814206AB15046007840B9107C02F12C
:2057D0001101002300F001000BF084FE01E00120E074C4F81C804CE0AA68002A3ED12A695E
:2057F000002A2FD16A690ABBEA683AB9E07B08B109F004FE0AF0FDFC01203BE070001021B3
:2058100000EB86002430C0B202F0BCFEE769617CFA68480000EB8100103225300421C0B224
:2058300002F0B0FEE1690020C86022E07000102100EB86002330C0B202F0A4FEE16900204F
:20585000486116E070001C2100EB86002230C0B202F098FEE169002008610AE070001C21C5
:2058700000EB86002130C0B202F08CFEE16900208860002005B0BDE8F08FC0465A4F00204E
:20589000B80800202DE9F0416E4D2B6882B01878012840F0D5805E78D3F86880DF6E062E09
:2058B00034D1F968C1F3002000281FBFD8F89800C0F3002000280C2634D1C1F340200028C2
:2058D0001EBFD8F89800C0F34020002808D00E260BF0FCFD01462868C0880BF0F3FD11E03D
:2058F000C1F3802000281EBFD8F89800C0F3802000280BD010260BF0E1FD01462868C08853
:205910000BF0D8FD0C2E57D10D2076E0A6F10C000428F7D8DFE800F00635053E0400F1E713
:20593000E9E7D5E7986D48B91C200BF0F9F82968886518B11C2200210BF008FB2868846D78
:20595000002CDFD0A07E10B90BF0B0FDA0761022002120460BF0FAFAA17E21B11029DCBF4A
:2059700020460BF09FFD0BF0EBF82082082104F112000BF097FD2868C08821460BF08EFD16
:20599000C0E7986DD0B1018A00F11202D8880BF081FD13E00BF07AFD01240646012E0CBF91
:2059B0000024002620460BF06DFD02462868C08831460BF063FD14E00D2E0CD1F868C0F3B1
:2059D000402000281EBFD8F89800C0F34020002807D00E2011E00E2E08BF0F200DD00F2E6D
:2059F0000ED1F868C0F3802000281EBFD8F89800C0F38020002803D010202968487002E0EF
:205A10002A6812205070286841780C2918BF0D2904D00E291CBF0F29102911D1C0880BF0EB
:205A300009FE00281ABF828A02EB52024FF4FA7202B0BDE8F04104480078022108F070BBC0
:205A5000BDE8F381304F00207C4F00202DE9FE4F674D664C674F2868626A066904F1200331
:205A700039460120B04710B1286880688047DFF89881DFF884910AF075F85FEA000B03D015
:205A900005F072F84FF0FF3B002637E00098216910F8062CA0F10C07032A02D171B38847EE
:205AB0002CE0A06A9DF805C00A213246401E10F8013F9C4506D0491E02F10102F7D14FF002
:205AD000FF0A01E05FFA82FA2868BAF1FF0F00F1080011D0387909F015F9B979012904D0EC
:205AF000022904BF0099887001E000990870009950460AF001FB01E0006880472868C36934
:205B10000DF105016A4601A898470028BED0D9F8000030F8167027B9761CF6B20A2EF8DBDF
:205B300023E00A2E21DAD8F808008047D9F800107700002231F807A0CA53D8F80C1088475E
:205B50002E4850F8262026705146304690470646FF202070D8F808008047D9F800107A5A68
:205B700016437E52D8F80C10884709F0FBFF0746BB451AD007B9224FE069B84238BF071C79
:205B9000D8F80800804782462868016A206A8847626A286817491B4B521C6262C66838463A
:205BB000B047D8F80C1050468847A7682968606914318FB9D9F800000A270026835B33B1AD
:205BD0000969606988472968D9F8000014317F1E06F10206F2D103E00969884729681431AB
:205BF00009684FF0FF30884745E7C04608100020181200204DED0000801B0020DC2301003E
:205C10008EC2F52828100020540C00202DE9F04FADF1240D079001F0B1FB614800780AF0BC
:205C300015F8604D0024012808D90A380FD0801E04D0401E0ED0401E09D006E00AF050FC3A
:205C5000022804BF01210C1C06D0696805E005211F2401E0032107246960534A1068C0F347
:205C70008150012806D152F80C0C0127020E07FA02F004430AF00CFF524AFF230818401E2E
:205C9000471C28607F1E02F8013BFBD1079A1268002702F0FF03FE2B20D0DDF81CC096468E
:205CB0003B4601260EF0FF02FF2A10D0904205D3914203D806FA02F2144201D002206CE043
:205CD00017430EF0FF02DFF8FCE00EF802305CF804EF5B1C0EF0FF02FE2AE5D1092003F0B9
:205CF00017FE07980121A86005F1280009F03EFD05F19806A8464FF0010A4FF0040B002525
:205D1000A9460AFA05F0044216D1074204BF05F0FF0141F4C04104D02A480799405D51F85B
:205D30002010224803F040F9E8B24FF0FF310AF0C5FAC6F8009001E0C6F800B0D8F800005E
:205D50006D1C361D8542DCD904A80AF088FE184C184A2078102104AB059008F10C0008F0DF
:205D700005FC68460AF0A4FECDF80C906A4660681149029008F1640008F00AFD0F4951F806
:205D90000D0C20F4F85040F4005041F80D0C0C4FC1F8FFAF4846C7F800A009B0BDE8F08F1C
:205DB000911B00202C0A0020B43F0050007FC767B8260100E9020100FDE200000D30094091
:205DD00008000940700A00202DE9F84F694CE76B0AF092FB6A4D002F4ED081081BD207F16B
:205DF00010020CCA002102400B4008BF002A43D03A693E6A10403043386207F1180696E8BD
:205E10000C002764194307F11806104386E803004FF480412CE039693E6A07F1180341F007
:205E3000020108403043386293E800030022002607F1180340EA080046EA090183E8030047
:205E50003E69E2632B46A3F1100000F108031968B14307F11006196096E8000301684B46BE
:205E700099430160394604F1440007F0C1FE022104F1BC000BF056F8AB46002601254FF0CE
:205E900002094FF0110AA846F0B20AF019FC071C30D0B87C01282DD1ABF11400797C036860
:205EB000113105FA01F223EA02010160797C4268113105FA01F111434160787C08FA00F080
:205ED000C0B20AF0A3FAF868002109F0FFFC812808BF87F8129081280CD0787C94F862112B
:205EF0000AFA00F0084384F86201002104F1F0000BF018F8761C032EC6D320480BF006F8A6
:205F10000746E06B002832D167B3684607F014FB30B1009820B1082005F05CFDBDE8F88FF4
:205F300008200AF073FA14493869A1F10802136807F110061843106096E80C0051F8102CC5
:205F5000181C104341F8100C00250D60B86841F81C0C0F68002FFCD008480AF0E5FAE06364
:205F7000BDE8F88F04F1BC0049460AF0DBFFBDE8F88FC046381200201C1004407012002023
:205F90001C10044063490878042800D870472DE9F84F401F05D0401E34D0401E012805D942
:205FB000AEE0BDE8F24F012001F0F4BF5A4CA078FF2827D00AF0BAFC82460AF16C067068FF
:205FD0000BF024FB0746387903281BD1B868017811F0030904D17068BDE8F24F0BF04ABA4A
:205FF000457800F102080AF20F10B9F1030F00900DD045B1307830B900983D214170012145
:206010000098017084E0454801780129FAD09AF894000AF59A7B58B32D1F4346EAB24946C4
:2060300050460BF023FA50B900993D204870012000990870BDE8F24F39480BF013BA394809
:206050000168884700904FF4C0709AF80620616842438818002180F83911DBF800109BF8F6
:206070000600490806F0ECFB2F4900980A6890470020B9F1030FB8602ED02C4840690078FC
:20609000810708D5C0074CBF03200020EDB2401918F8000000E0812030722549BBF83E00EC
:2060B0000A78904211D3317A802918BF81290FBF7F21204A1078091A49B200914B46A0780B
:2060D000EAB241460BF0CAF911E0A0784B46EAB241460BF0BFF90AE00E480178082903D1A1
:2060F00041465046FBF71CF9404607F0A3FC70680BF0C0F939465046BDE8F44F0BF0A6B96D
:2061100000200AF04BF9BDE8F24F86200BF04ABABDE8F18F6F4F0020684E0020794F0020C5
:20613000AC4500205C0C0020600C0020242701006B4F0020704F00202DE9F04F8346ADF169
:20615000140D0393BBF1000F02920E9801910F9C049000F0AC80081C00F0A980101C00F03D
:20617000A680181C00F0A3800498002800F09F80002C00F0A180206A002800F09880524D39
:20619000676A281D0068002F00F09180A16A0BF059F940B2002808BF6FF0020700F08380AD
:2061B00084F82C002078618800EB80000918143188B2216A88474349086030B9284640684E
:2061D0000BF03CF94FF0FF376DE08A46628823786088DAF8001026789F1800EB01097818C4
:2061F00000F1040806EB460002EB430786187F18C01876188018401800F11005204607F036
:20621000AFFC2078C01C8010C9F800002078C01C8010C8F8000020780837C01C801038605F
:2062300020780C36C01C801030602078C01C801028602278594609F1040004F037FA2278F6
:20625000019908F1040004F031FA22780299381D04F02CFA0095484641463A4633460BF036
:20627000E9F847B222780398331D194604F01EFA22780498291D04F019FA21786288DAF86C
:20629000000001EB81015218002105F0E5FB616ADAF8000088470C4840680BF0CFF8F8B24C
:2062B000992808BF002784F82C70384606E01CB16FF0010084F82C006FF0010005B0BDE814
:2062D000F08FC046884F0020741100202DE9F843614C5A4D5A4EDFF870815E4F94F8E4104B
:2062F0000846401E0B2864D8DFE800F07B2C43062343062343067664042907D001220A29C0
:2063100045F8212C14BF0220032004E0202045F8210C0120024684F8E200002045F8390CD4
:206330000827C5F8FF7FC5F8F37F45F8392CBDE8F883052914BF09200620002784F8E4001B
:20635000376075E094F8E170383D0120002FC5F81B0004BF0620002102D00021F160032056
:2063700084F8E400032045F8010C3160306880085ED294F8E4103348012703290ED00068CA
:20639000456800216022052300914046A84794F8E400062814BF0A200720CFE700684568E2
:2063B000002160220523022000904046A8470420C4E7FEE72548264F0026012506600E2065
:2063D0003D6003F08FF9022008F0C4FD84F8E45084F8E360BDE8F883002038600C2578606A
:2063F00024E04FF08059D9F8A0010168202088472C3D0F2045F8010C41F61D56C5F80360DB
:20641000D9F8A401466800214FF4C0720723022540460095B047D9F8A401C66800214FF447
:20643000C07207234046B0470120386084F8E45004F178000AF04EFDBDE8F88339400C4073
:2064500038600C40A401001000A00C402C500C4004800C4034600C40400B00202DE9F04F6F
:2064700088468246ADF1A40D0BF0E4F85C4CE67894F80BB0A57A94F80C90071C08BF14209E
:2064900000F0AB8068460021A4220AF05FFD2801279A55498DF8046005F0030300F4807690
:2064B00005F00405ADF800A0B9F1020F01EA020143EA01024B4B8DF8A0B046EA020100F41E
:2064D000C06603EA010246EA020045EA00054FF00000279508BF01208DF837000AF0A6FFF2
:2064F000412809DB207B00280CBF002008209DF8991008438DF89900607B002804BF0020DC
:206510008DF8380017D001208DF8380004F1860120220DF139000AF0C7F80DF1590004F1EF
:20653000A60120220AF0C0F80DF1790004F1C60120220AF0B9F8A07940B18DF8260004F1E6
:20655000500110220DF127000AF0AEF866793EB104F16000B91D0622054609F0ADFD68B9B3
:206570002079002804BF00208DF8050015D08DF8050004F140010DF106000BE08DF805605F
:206590000DF1060005F1160110220AF08DF80DF11600A91D10220AF087F8E07930B1B8F1C1
:2065B000000F03D0279941F002012791002100B10121A7789DF89900002F41EA00018DF81C
:2065D00099100CBF002004209DF8991008438DF89900002168460AF025FF29B0BDE8F08F62
:2065F000B8080020FBF9FFFFFCFEFFFF0FB42DE9F04106AF8046ADF1280D0AF0CFFB3E1D4A
:2066100026F00306361D30F0010001D10AF0C3F8CDF81A601420ADF816000025CDF80E50DA
:20663000FF248DF818407B68CDF81E300AF0F6FE06460AF0B3FB30F0010015D009F002FF72
:206650004D492A468446062031F80C7F4FB14B681B689E4204D0401E02F10102F4D100E09D
:20667000D4B260460AF0A2F8404608F03FFC0146FF2905D0204603220DF11A0305F0BEFDF7
:206690000AF0CCFE09F030F8A8460446CDF800800AF084FB30F0010063D00098A04260D011
:2066B00041F2883001A908F0D1FD009D002852D10AF0B0FE0199012746186068019B4146D4
:2066D0004FF000520AF0CEFF00282BD00DF122000DF1230102AA06F071FAB0B99DF82200C0
:2066F00003A908F0E9FB38B9029A0AF039FB00281CBF029D474615D10299684608F0DEFF14
:2067100060684FF000510AF081FE0198B0F1FF3FD3D00028D1D00AF07DFE301A02D0019989
:20673000814216D209F0A0FD009E09F08BFE083401463EB1324652F80C0C40B9206842F8E1
:206750000C0C266008460AF031F8384603E00246F1E70190B1E720B92DB128460AF08FFBC7
:2067700001E00AF018F8DDF81A0000680AB0BDE8F04104B07047C0469C0C00205A48807864
:20679000FF2800D170472DE9F84F0AF0CFF8054605F20F100178012908BF417800F08780A1
